:020000040800F2
:10000000B03200200D030008B13B0008313A00086F
:10001000AD3B0008810800081D4900081F030008C7
:10002000000000000000000000000000013E000889
:100030008508000800000000C13B0008913E000850
:1000400029030008290300082903000829030008E0
:1000500029030008290300082903000829030008D0
:1000600029030008290300082903000829030008C0
:1000700029030008290300082903000829030008B0
:1000800029030008290300082903000829030008A0
:100090002903000829030008290300082903000890
:1000A0002903000829030008290300082903000880
:1000B00000000000290300082903000829030008A4
:1000C0002903000829030008290300082903000860
:1000D0002903000829030008290300082903000850
:1000E0002903000829030008290300082903000840
:1000F0002903000829030008290300082903000830
:100100002903000829030008FD3E00082903000810
:10011000290300082903000829030008290300080F
:1001200029030008290300082903000829030008FF
:1001300029030008290300082903000829030008EF
:1001400029030008290300082903000829030008DF
:1001500029030008290300082903000829030008CF
:1001600029030008290300082903000829030008BF
:1001700029030008290300082903000829030008AF
:10018000290300082903000829030008290300089F
:10019000290300082903000829030008290300088F
:1001A000290300082903000829030008290300087F
:1001B00029030008000000002903000829030008A3
:1001C0002903000800000000290300082903000893
:1001D000290300082903000829030008290300084F
:1001E000290300082903000829030008290300083F
:1001F0000000000000000000290300082903000897
:10020000290300082903000829030008290300081E
:10021000290300082903000829030008290300080E
:1002200029030008290300082903000829030008FE
:10023000290300082903000800F002F800F057F82D
:1002400014A696E8000CB244B344DA4501D100F09C
:100250004EF8BAE80F000FA696E83000A5EB0405AB
:1002600004EB0607AAEB0704A7F101074FEA1515EF
:100270004FEA3414A4F10104AC4201D300F037F882
:1002800013F0010F18BFFB1A43F0010300F001F84F
:10029000DBE71847F465000014660000103A24BF3D
:1002A00078C878C1FAD8520724BF30C830C144BFDB
:1002B00004680C60704700007047000000230024B1
:1002C00000250026103A28BF78C1FBD8520728BF66
:1002D00030C148BF0B607047642900F0F9800020EE
:1002E00070471FB506F0F8F91FBD10B510BD00F03E
:1002F0008CFA1146FFF7F5FF04F012FB00F0AAFAA2
:1003000003B4FFF7F2FF03BC00F0B2FA0A488047DB
:100310000A480047FEE7FEE7FEE7FEE7FEE7FEE7E6
:10032000FEE7FEE7FEE7FEE7FEE7000004480549BA
:10033000054A064B70470000B13E0008390200082C
:10034000B02C0020B0320020B02E0020B02E0020B3
:1003500053EA020C00F069802DE9F04B4FF00006E3
:10036000002B1FBFB3FA83F503FA05F424FA05F650
:100370005E4012BF1643B2FA82F502FA05F4C5F1E7
:1003800020051EBF22FA05FC44EA0C04203556EA7B
:10039000044C4FEA144418BF641C4FF000084FF09F
:1003A0000009904271EB030C39D3002919BFB1FA4F
:1003B00081F701FA07F6B0FA80F700FA07F6C7F1FD
:1003C00020071EBF20FA07FC46EA0C062037B6FBC2
:1003D000F4FCA7EB0507103F07F01F0BCBF120063D
:1003E0002CFA06F60CFA0BFB44BFB3460026202F6E
:1003F000A4BF5E464FF0000B5BEA060C08BF4FF04F
:10040000010B19EB0B0948EB0608ABFB027C06FB62
:1004100002CC0BFB03CCC01B71EB0C01C1E70B46FC
:10042000024641464846BDE8F08B13B5084318BF65
:100430004FF0FF300146AFF30080BDE81C4070472D
:100440000FB41CB5074B06AA7B446946009005987B
:1004500000F091F90020694600F0A0F91CBC5DF89D
:1004600014FB0000510300002DE9F0410E46044644
:10047000002020622046E168884730B3252805D057
:10048000D4E901219047206A401CF2E7E168204648
:1004900000278847050018D0A5F14100192802D887
:1004A00020354FF400673246294620462760FFF783
:1004B00013FF40B1012804D0F61D26F007060836C8
:1004C000D8E7361DD6E72846DAE7206ABDE8F0818E
:1004D0002DE9F0410646002410687529314616A51D
:1004E00010D0AFF30080002802DA404213A507E0E5
:1004F00031688A0701D512A502E0490704D511A584
:10050000012401E0AFF3008000210A2206F1240754
:1005100009E0B0FBF2FCB0FBF2F302FB1C00303050
:1005200078541846491C0028F3D123462A46304601
:10053000BDE8F04100F0C0B8000000002D00000050
:100540002B0000002000000010B5431C02E010F852
:10055000011B71B18107FAD14FF0013202C88C1A28
:100560008C4314EAC211F9D0C01A0A0603D0C01E87
:1005700010BDC01A10BD0A0401D0801E10BD0902B2
:10058000FCD0401E10BD032A40F2308010F0030C56
:1005900000F0158011F8013BBCF1020F624498BFD6
:1005A00011F801CB00F8013B38BF11F8013BA2F173
:1005B000040298BF00F801CB38BF00F8013B11F0EE
:1005C000030300F0F080083AC0F0088051F8043BC3
:1005D000083A51F804CBA0E80810F5E7121D5CBFFB
:1005E00051F8043B40F8043BAFF30080D20724BF2E
:1005F00011F8013B11F801CB48BF11F8012B24BFC2
:1006000000F8013B00F801CB48BF00F8012B704710
:1006100002F0FF0343EA032242EA024200F024B858
:100620004FF000020429C0F0128010F0030C00F01B
:100630001B80CCF1040CBCF1020F18BF00F8012B99
:10064000A8BF20F8022BA1EB0C0100F00DB85FEA67
:10065000C17C24BF00F8012B00F8012B48BF00F833
:10066000012B70474FF0000200B5134694469646A2
:10067000203922BFA0E80C50A0E80C50B1F12001B5
:10068000BFF4F7AF090728BFA0E80C5048BF0CC063
:100690005DF804EB890028BF40F8042B08BF7047C1
:1006A00048BF20F8022B11F0804F18BF00F8012B33
:1006B00070477047704770472DE9F0470D469946DF
:1006C0009246044600F124080168880604D5E069D2
:1006D00021F01001216000E00120A84201DD471B4C
:1006E00000E00027A1697A1902EB0900081AA0614D
:1006F0002078C00602D42046AFF30080002608E030
:10070000D4E901211AF806009047206A401C761CA3
:1007100020624E45F4DB2078C0060AD52046AFF3B0
:10072000008006E0D4E9012130209047206A401C77
:100730002062381EA7F10107F4DC07E0D4E90121AB
:1007400018F805009047206A401C2062281EA5F179
:100750000105F3DC2046AFF300802078000602D5C7
:100760000220BDE8F0870120FBE7000001694A1C78
:1007700002610878704700B58FB0CDE901310021E2
:10078000059105497944CDE9031011466846FFF704
:100790006BFE0FB000BD0000E5FFFFFF0A6802F826
:1007A000010B0A60704710B5203AC0F00B80B1E829
:1007B0001850A0E81850B1E81850A0E81850203A96
:1007C000BFF4F5AF5FEA027C24BFB1E81850A0E89F
:1007D000185044BF18C918C0BDE810405FEA827CB9
:1007E00024BF51F8043B40F8043B08BF7047D207D0
:1007F00028BF31F8023B48BF11F8012B28BF20F871
:10080000023B48BF00F8012B7047754600F02CF8FA
:10081000AE4605006946534620F00700854618B0ED
:1008200020B5FFF783FDBDE820404FF000064FF0F4
:1008300000074FF000084FF0000BAC46ACE8C009D1
:10084000ACE8C009ACE8C009ACE8C00921F0070178
:100850008D46704710B50446AFF300802046BDE8D2
:100860001040FFF74DBD0000004870471000002009
:1008700001491820ABBEFEE72600020070470000C9
:10088000FEE700007047000072B600BFFEE7000000
:100890002DE9F04F83B00E68002E00F017818146DD
:1008A0002030019047F67F70C0F22F0000EA9920B7
:1008B000002200234FF0010B00274FF00008C4F284
:1008C0000262CA464FF0000C00900FE00022C4F212
:1008D00002620E680CF1010C36FA0CF008F1020805
:1008E00007F1040703F1080300F0F0800BFA0CF5A0
:1008F00016EA0500EDD09145029025D04E6846F0ED
:100900001002122A5ED16FF0030000EA5C02019827
:1009100007F01C0550F802E00E690F24AC4006F009
:100920000F062EEA0404AE4026438650DAF8002073
:1009300003204E6800FA08F5AA4306F0030505FAFD
:1009400008F52A4349E000BF10684E6846F20C746F
:1009500006F00106A84306FA0CF6C0F60004304380
:1009600004EBCC061060D6F804E06FF0030054F8F6
:100970003CA000EA5E051C20554400EA8E06D5F82E
:1009800020B00F22484602FA06F92BEA09028146F6
:100990000B2000FA06F632432A62DAF800204FEA0A
:1009A0004E05032000FA05F60220B24300FA05F5D1
:1009B0002A43CAF800204E684FF0010B122E11D9BD
:1009C00036E000BFDAF80020032000FA08F5AA4359
:1009D00006F0030505FA08F52A43E646CAF80020A2
:1009E000122E25D80BFA06F212F0061F1AD04FEA83
:1009F0004E040320DAF8082000FA04F5C868AA4378
:100A0000A0401043CAF80800DAF804000BFA0EF20E
:100A10009043320902FA0EF21043032ECAF8040082
:100A200002D005E0032E03D1886801283FF44EAFC1
:100A3000DAF80C004FEA4E0203258C689540A84373
:100A400004FA02F21043F200CAF80C007FF53EAF40
:100A500042F2000E2CF00300C4F2026E7044026EEB
:100A600003F018060F25B540AA43009D05FA06F6C7
:100A700032430266DEF80000029C4A6840EA04063F
:100A8000D50258BF20EA0406CEF80060DEF8040064
:100A9000950240EA040658BF20EA0406CEF8046036
:100AA000DEF88400950340EA040658BF20EA0406F5
:100AB000CEF88460DEF88000D20340EA040658BF16
:100AC00020EA0406CEF8806000E700BF03B0BDE86E
:100AD000F08F0000426902EA0103914341EA0341B9
:100AE000816170471823002A08BF2823C15070472E
:100AF00042F2B070C2F200000068704740F200415C
:100B0000C4F203010A68D2071CBF012070470A68BB
:100B100022F00402104308600020704740F20041B8
:100B2000C4F20301086840F0010200200A60704727
:100B300040F2000042F2B071C2F20000C2F20001C5
:100B400000780A68104408607047000080B542F2DF
:100B50000000C4F20200016841F4807101600320CA
:100B600000F0C8F801F022FD40F62041C4F2026115
:100B7000096846F2F26201F00F01C0F60002515C12
:100B8000C84040F20801C2F200010860042002F0EF
:100B90005BFB0F2000F008F800281CBF012080BD7F
:100BA00000F054F8002080BDB0B588B040F69C41FC
:100BB000C4F202610A68044642F020020A60096831
:100BC00002A801F020010291029901A901F052FC52
:100BD00001F08CFC4DF68361C4F21B31A0FB0101D6
:100BE0004FF0FF3000EB914140F27C1041F20043A6
:100BF000C2F2000040F2E732C4F200030025C0E96F
:100C00000031C0E90252056102F068FB30B940F2E0
:100C10007C10C2F2000002F095FB38B1054632208C
:100C200000F02AF8284608B0B0BD00BF0F2C0BD842
:100C3000322021460022002500F030F840F2040066
:100C4000C2F200000460EAE70125E8E781B040F65F
:100C50009440C4F202600168002241F00401016086
:100C600000680F2100F00400009000986FF0010070
:100C700001B000F013B80000002848BF70471C22E4
:100C800000F01F0102EAD000012202FA01F14EF247
:100C90000012CEF2000281507047000010B54EF6EF
:100CA0000C5CCEF2000CDCF80030C3F3022E8EF0A8
:100CB0000704042C28BF0424BEF103034FF0FF3EB9
:100CC00038BF00230EFA04F4A14399400EFA03F34F
:100CD0009A43114300F00F0200F160430901043A06
:100CE00003F564436244002848BF02F10C03197005
:100CF00010BD00004EF60C51CEF200010A684FF60E
:100D0000FF031A4060F30A2242F0806040F0FD7059
:100D10000860704740F60C0CC4F2026CDCF830201E
:100D200002F4403282420BD1B0F1011F68D3DCF8EB
:100D3000000040F48020CCF800000020704700BF85
:100D4000DCF80020B0F5803F22F4E02242EA000205
:100D500040F2080088BF42F48022CCF80020C2F2A2
:100D60000000006841F25972CDF2B712A0FB0202F6
:100D7000900B0346DCF80010B3F1FF3218BF0122DC
:100D800009041ED4591C1CD0DCF80010002B1A4694
:100D900018BF0122090414D49BB1DCF800105A1EBC
:100DA00018BF012209040CD4012B0AD0DCF8001072
:100DB0009A1E18BF0122090403D4022BA3F10403D5
:100DC000D8D112B3DCF83010421C090416D4AAB1F1
:100DD000DCF83010090412D488B1DCF830100904B2
:100DE00010D401280ED0DCF83010021F090402D400
:100DF00002281046E6D1901C10B906E0104620B13A
:100E00000020704701380028FAD103207047000005
:100E100040F63C00C4F20260006800F440307047C5
:100E2000B0B540F6284EC4F2026EDEF80C50DEF883
:100E30000030DEF80010DEF80020DEF81040D206A8
:100E4000E40804EAE272C1F3032103F003036FF341
:100E50005F3201F1010C00EE102A6FF35F25B8EE4E
:100E6000400ADFE803F003030B1100BF5EF8201C0B
:100E7000090255D4DEF8CC100B0453E001EE10CA81
:100E80009FED4B2A04E000BF01EE10CA9FED472AF8
:100E9000B8EE411A82EE011ADEF80C109FED423ACC
:100EA0006FF35F2102EE101A20EE030AB8EE422A19
:100EB00030EE020AB7EE002A30EE020A21EE000AF6
:100EC000DEF80010C90352D400220260DEF80010E0
:100ED000890360D5DEF80C10C1F30641013101EE43
:100EE000101AB8EE411A80EE011ABCEEC11A11EECA
:100EF000102A4260DEF80010490352D5DEF80C10CB
:100F0000C1F30661013101EE101AB8EE411A80EE0C
:100F1000010ABCEEC00A10EE101A8160B0BD00BF1D
:100F20005EF8203C46F28C72190FC0F6000202EB0C
:100F3000810102EE10CA91ED001AB8EE422AB8EE15
:100F4000411A9FED193A81EE021A02EE105A20EE74
:100F5000030AB8EE422A30EE020AB7EE002A30EE5B
:100F6000020A20EE010ADEF80010C903ACD5DEF853
:100F70000C10C1F34621013101EE101AB8EE411AEE
:100F800080EE011ABCEEC11A11EE102A0260DEF8E2
:100F9000001089039ED400224260DEF8001049034D
:100FA000ACD400218160B0BD00000039001B374B7C
:100FB0000024744BB0B540F62C4EC4F2026EDEF83D
:100FC0001050DEF80030DEF80010DEF80020DEF809
:100FD0001440D206E40804EAE272C1F3032103F0EC
:100FE00003036FF35F3201F1010C00EE102A6FF37F
:100FF0005F25B8EE400ADFE803F003030B1100BFE2
:101000005EF8241C090255D4DEF8C8100B0453E026
:1010100001EE10CA9FED4B2A04E000BF01EE10CA9A
:101020009FED472AB8EE411A82EE011ADEF8101041
:101030009FED423A6FF35F2102EE101A20EE030A91
:10104000B8EE422A30EE020AB7EE002A30EE020A6B
:1010500021EE000ADEF80010C90352D4002202601B
:10106000DEF80010890360D5DEF81010C1F30641E8
:10107000013101EE101AB8EE411A80EE011ABCEEF1
:10108000C11A11EE102A4260DEF80010490352D551
:10109000DEF81010C1F30661013101EE101AB8EE4E
:1010A000411A80EE010ABCEEC00A10EE101A8160EF
:1010B000B0BD00BF5EF8243C46F28C72190FC0F63A
:1010C000000202EB810102EE10CA91ED001AB8EEA7
:1010D000422AB8EE411A9FED193A81EE021A02EE49
:1010E000105A20EE030AB8EE422A30EE020AB7EE9A
:1010F000002A30EE020A20EE010ADEF80010C903D1
:10110000ACD5DEF81010C1F34621013101EE101A02
:10111000B8EE411A80EE011ABCEEC11A11EE102A87
:101120000260DEF8001089039ED400224260DEF8DF
:1011300000104903ACD400218160B0BD000000392B
:10114000001B374B0024744BB0B540F6304EC4F250
:10115000026EDEF81450DEF80030DEF80010DEF823
:101160000020DEF81840D206E40804EAE272C1F377
:10117000032103F003036FF35F3201F1010C00EE72
:10118000102A6FF35F25B8EE400ADFE803F003038F
:101190000B1100BF5EF8281C090255D4DEF8C410FC
:1011A0000B0453E001EE10CA9FED4B2A04E000BF90
:1011B00001EE10CA9FED472AB8EE411A82EE011ADD
:1011C000DEF814109FED423A6FF35F2102EE101A21
:1011D00020EE030AB8EE422A30EE020AB7EE002AE9
:1011E00030EE020A21EE000ADEF80010C90352D4E4
:1011F00000220260DEF80010890360D5DEF81410CA
:10120000C1F30641013101EE101AB8EE411A80EE29
:10121000011ABCEEC11A11EE102A4260DEF800106D
:10122000490352D5DEF81410C1F30661013101EE15
:10123000101AB8EE411A80EE010ABCEEC00A10EE98
:10124000101A8160B0BD00BF5EF8283C46F28C7277
:10125000190FC0F6000202EB810102EE10CA91EDF7
:10126000001AB8EE422AB8EE411A9FED193A81EE03
:10127000021A02EE105A20EE030AB8EE422A30EEAD
:10128000020AB7EE002A30EE020A20EE010ADEF86A
:101290000010C903ACD5DEF81410C1F346210131AA
:1012A00001EE101AB8EE411A80EE011ABCEEC11A16
:1012B00011EE102A0260DEF8001089039ED400228D
:1012C0004260DEF800104903ACD400218160B0BD5B
:1012D00000000039001B374B0024744B80B584B0EC
:1012E000024647F6FF7300209B1A70EB0103C0F221
:1012F0006D80D2F17F0370EB0103C0F2A380013A4D
:1013000061F10001D2F13F034FF0000373EB0101E3
:10131000C0F04A84DFE812F040005A024804040298
:10132000480448044804EA014804480448044804BE
:101330004804480448041E02480448044804480479
:10134000480448044804480448044804480448043D
:10135000480448044804C6014804480448044804B2
:10136000480448044804480448044804480448041D
:10137000480448044804480448044804480448040D
:1013800048044804480448044804480448044804FD
:101390004804480448043A0240F60040C4F202609F
:1013A000D0F8E01001F00301012900F04783002983
:1013B00000F0F2820268022903D112F4806240F048
:1013C000A083D0F8F00003294FE200BF4FF6FF736F
:1013D000C0F23F039B1A70EB010367DB4FF6FF730C
:1013E000C0F203039B1A4FF0000C7CEB010380F268
:1013F00085804FF6FF73C0F20F039B1A7CEB01034D
:10140000C0F2EE8082F480230B4300F0F98182F475
:101410000022114340F0C88340F60040C4F202604D
:10142000D0F8E410026801F44051920440F11283B4
:10143000002940F00F8346F60040C0F2DC2004B0E3
:1014400080BD00BF40F2FF339B1A4FF0000C7CEBD5
:10145000010380F2778041F6FF739B1A7CEB010356
:10146000C0F2DC8082F480630B4300F0DF8182F401
:101470000062114340F0988340F60040C4F20260DD
:10148000D0F8E81011F4407100F0A482D0F8F020F8
:10149000B1F5807F03D112F0006240F0EE82026865
:1014A000B1F5007F00F069816BE100BF6FF07E4312
:1014B0009B1A4FF0000C7CEB010380F273806FF0FD
:1014C00078439B1A7CEB0103C0F2C68082F0007364
:1014D0000B4300F0D38182F08062114340F06483BB
:1014E00040F60040C4F20260D0F8E410C1F30151AC
:1014F000DFE811F0A4027002D402AA0282F40043D1
:101500000B4300F0518282F480330B4300F00C82D5
:1015100082F40032114340F0478340F60041C4F2A8
:101520000261D1F8E800C0F30242042A00F25582B9
:101530004BF68030DFE812F048020C02D802380384
:10154000D40200BF82F080030B4300F0498282F492
:1015500080730B4300F0028282F40072114340F06A
:10156000238340F60040C4F20260D0F8E81011F482
:10157000406100F09F82D0F8F020B1F5806F03D178
:1015800012F0006240F079820268B1F5006F03D179
:1015900012F4806240F0B582D0F8F000B1F5406FEF
:1015A00063E100BF82F480030B4300F0358282F4D4
:1015B00000030B4300F0E48182F08072114340F09D
:1015C000F38240F60040C4F20260D0F8E010C1F3AC
:1015D0000141DFE811F02E023302E701FF0100BFF5
:1015E00082F480130B4300F0578182F40012114300
:1015F00040F0DA8240F60040C4F20260D0F8E41015
:10160000490400F1A581D0F8E010C1F38161DFE861
:1016100011F051011B024502E10100BF82F40053A9
:101620000B4300F0518182F48042114340F0BC82B0
:1016300040F60041C4F20261D1F8E400C0F3022296
:10164000042A00F2CA814BF68030DFE812F02D0246
:1016500051018101AD023F0282F000630B4300F0B3
:101660004D8182F08052114340F09E8240F600414D
:10167000C4F20261D1F8E800D1F8F020920700F43A
:10168000004202D5002A00F0CC80D1F8F000000121
:101690004FF0000040F18882002A00F08582D1F8E6
:1016A000F000ECE140F60041C4F20261D1F8E8003C
:1016B00000F00700012800F0C181002800F05A81E5
:1016C0000A68022803D112F4806240F01A82D1F82D
:1016D000F020032803D112F0020240F0A2800A6831
:1016E00004284FF0000000F055825DE240F6004013
:1016F000C4F20260D0F8E01001F0C001402900F00F
:101700009D81002900F095810268802903D112F49F
:10171000806240F0F681D0F8F000C029A5E000BF5B
:1017200040F60040C4F20260D0F8E01001F0300151
:10173000102900F08381002900F07B8102682029B4
:1017400003D112F4806240F0DC81D0F8F00030293F
:101750008BE000BF40F60040C4F20260D0F8E01019
:1017600001F44071B1F5807F00F06881002900F03C
:1017700060810268B1F5007F03D112F4806240F00D
:10178000C081D0F8F000B1F5407F6EE040F6004136
:10179000C4F20261D1F8E00000F44060B0F5806F5F
:1017A00000F04C81002800F044810A68B0F5006F19
:1017B00003D112F4806240F0A4810A68B0F5406F52
:1017C0004FF0000000F0E681EEE100BF40F600407F
:1017D000C4F20260D0F8E01001F00C01042900F01E
:1017E0002D81002900F025810268082903D112F417
:1017F000806240F08681D0F8F0000C2935E000BF0F
:1018000040F60040C4F20260D0F8F010D0F8F020AA
:1018100001F44071920740F12981B1F5807F40F0D9
:1018200025814FF4004004B080BD00BF40F6004069
:10183000C4F20260D0F8E01011F4402100F0F98009
:10184000D0F8F020B1F5802F03D112F0006240F003
:1018500014810268B1F5002F03D112F4806240F0C8
:101860005081D0F8F000B1F5402F00F002024FF0A7
:10187000000008BF900304B080BD00BF40F60040E8
:10188000C4F20260D0F8E810C1F3C101DFE811F042
:101890007200D6008A00A20040F60040C4F2026046
:1018A000D0F8E010C1F38161DFE811F00400CE0050
:1018B000F8009400006846F600418004C0F2DC2184
:1018C00001EAE07004B080BD40F60041C4F202615C
:1018D000D1F8E400C0F34212042A00F27E804BF6F5
:1018E0008030DFE812F0E100050035006101F3000F
:1018F00001A8FFF729FC019804B080BD40F6004024
:10190000C4F20260D0F8E0100068800301F040707B
:1019100040F1BE80002840F0BB8041F60030C0F2AC
:10192000B70004B080BD00BF40F60041C4F20261C0
:10193000D1F8E40000F00702042A4ED84BF68030BC
:10194000DFE812F042000600D2003201CE0000BFF4
:1019500001A8FFF765FA019804B080BD40F6004089
:10196000C4F20260D0F8E810C1F38111DFE801F0A1
:1019700002661A3204B0BDE8804000F0F7BD00BF37
:1019800040F60040C4F20260D0F8E010C1F301510B
:10199000DFE801F00254082004B0BDE8804000F008
:1019A000C5BD00BF006892E040F60040C4F202608E
:1019B000D0F8E810C1F30232052A00F2CD80DFE84A
:1019C00002F0033DC5CBCB0904B0BDE8804000F078
:1019D00077BD00BF0168890670D4002004B080BDC7
:1019E00040F60041C4F20261D1F8E00000F440503A
:1019F000B0F5805F22D0E0B10A68B0F5005F03D196
:101A000012F4806240F07D800A68B0F5405F4FF0CC
:101A1000000000F0BF80C7E040F60041C4F2026160
:101A2000D1F8E00000F44040B0F5804F06D0002827
:101A300060D104B0BDE8804000F058BD04B0BDE8FE
:101A4000804000F0B3BD00BF01A8FFF7B3FA0298D1
:101A500004B080BD026892045AD5B1F5805F57D1B9
:101A600043F20060C0F26E1004B080BDD0F8F020E8
:101A700012015BD5B1F5007F58D1D0F8F000C0005D
:101A80004FF0FA0058BF4FF4FA4004B080BD00BFD9
:101A9000B0F1007F08D0B0F1807F9ED101A8FFF7A0
:101AA000BFF9029804B080BD01A8FFF783FA01983E
:101AB00004B080BD016889067FF58FAF8168090297
:101AC00002D4D0F8F4006DE0806870E0086842F25B
:101AD00000414005C0F2F40101EAE07004B080BDAD
:101AE0000868800659D478E701A8FFF72DFB029813
:101AF00004B080BD0A68B0F5004F45D112F4806291
:101B000042D042F20040C0F2F40004B080BD00BFF9
:101B10000068B1F5005F00F480624FF0000004BF80
:101B200042F20040C0F2F4000CE000BF0068B1F5E2
:101B3000407F00F400324FF0000004BF4BF6D800A5
:101B4000C0F20500002A08BF10462DE001A8FFF7EB
:101B500031FA039804B080BD01F4E0410268B1F5A8
:101B6000405F03D112F400327FF4D7AE006810F466
:101B700080601CBF42F20040C0F2F400B1F5804F1B
:101B800018BF002004B080BD0A68B0F5404F4FF088
:101B9000000009D112F0200206D08868000205D4A6
:101BA000D1F8F400000402E004B080BD8868C0F3FE
:101BB000036046F28C71C0F6000151F8200004B0B9
:101BC00080BD00002DE9F04F81B00446006840F66A
:101BD000E046C107C4F202661ED1810724D4410742
:101BE0002AD4010730D4C10636D481063CD441063C
:101BF00042D4010648D4C1054ED4410254D48105D3
:101C00005AD4410560D4010566D440F628488004C2
:101C1000C4F202686DD494E03168226D21F00301B2
:101C2000114331608107DAD53168626D21F00C0112
:101C3000114331604107D4D53168A26D21F03001E4
:101C4000114331600107CED53168E26D21F0C0014A
:101C500011433160C106C8D53168226E21F440714C
:101C6000114331608106C2D5B168626E21F007016F
:101C70001143B1604106BCD53168A26E21F44061C8
:101C8000114331600106B6D53168E26E21F440514E
:101C900011433160C105B0D5B168226F21F0C00198
:101CA0001143B1604102AAD53168626F21F440410D
:101CB000114331608105A4D5B168A26F21F4406160
:101CC0001143B16041059ED53168E26F21F4402196
:101CD00011433160010598D5B168D4F8802021F412
:101CE00040711143B16040F628488004C4F2026894
:101CF00027D5D4F890004FEA7011042928D8DFE8DE
:101D000001F003130B1B1B0004F1080001F082FF1C
:101D10000546B8B90EE000BFD8F8001041F4803194
:101D2000C8F8001008E000BF04F12C0001F0ECFF3F
:101D3000054638B9D4F89000716821F0E0010843F5
:101D4000706000256078400606D4284629E000BF70
:101D5000012560784006F8D5D4F894004FEA302188
:101D6000042939D82846DFE801F0032F0B121200AE
:101D700004F1080001F04EFF074698B909E000BFE2
:101D8000D8F8000040F48030C8F800002846074624
:101D900040B97068D4F8941020F4E0600843706093
:101DA00000202F466178090629D5D4F8A4104FEAFF
:101DB0003131052900F2C681022911D00546B0B1A2
:101DC000A178C9071FD13BE004F12C0001F09CFF72
:101DD00000280746E6D1DCE701200127E2E700BF43
:101DE00004F1080001F016FF00280546E8D1B068AC
:101DF000D4F8A41020F4E0400843B06000203D4631
:101E0000A178C9071CD0D4F88810042900F2928167
:101E1000DFE811F00C0006007C010C000C0000BF94
:101E2000D8F8001041F48031C8F80010074640B9D6
:101E30007068D4F8881020F0070008437060002014
:101E40002F46A17889071DD5D4F88C104FEA31416F
:101E5000042900F27381DFE811F00B000500630133
:101E60000B000B00D8F8001041F48031C8F80010C6
:101E7000824640B9B068D4F88C1020F4E0200843C2
:101E8000B0600020BA46A178490701D4574659E00E
:101E9000834656F84C0C5FEA40790BD456F84C0C4C
:101EA00040F0040046F84C0C56F84C0C00F00400CE
:101EB000009000984FF60047CFF6FF7758F80700DC
:101EC00040F0010048F80700FEF712FE054600BF8B
:101ED00058F80700C00707D1FEF70AFE401B02288A
:101EE000F6D90320032724E05846BBF1000F5F46D4
:101EF0001FD1306910F4407012D0D4F8BC10884261
:101F00000BD03069316920F4407041F48031316187
:101F1000316921F4803131613061C00740F01A81AC
:101F20003069D4F8BC1020F44070084330610020C0
:101F30005746B9F1000F05D456F84C1C21F00401A6
:101F400046F84C1CA178C90618D5D4F89C104FEA65
:101F5000B161032900F2D080DFE801F00602C20679
:101F600004F1080001F056FE024640B93068D4F88A
:101F70009C1020F040600843306000203A46216801
:101F80000B031DD5D4F8983033B1B3F5005F18BFFB
:101F9000B3F5805F40F0B480054658B18A0212D490
:101FA0000A0222D4CA0129D48A0130D4490137D483
:101FB00059E000BF706820F4405018437060002062
:101FC00015468A02ECD5D4F8A020B2F5804F05D191
:101FD000D8F8003043F48033C8F80030736823F435
:101FE00080431A4372600A02DCD53268D4F8B030FC
:101FF00022F440121A433260CA01D5D53268D4F8AF
:10200000B43022F440321A4332608A01CED5B2682D
:10201000D4F8B83022F018021A43B260490122D530
:10202000D4F8AC10B1F5401F0ED0B1F5001F05D1AA
:10203000D8F8001041F40031C8F80010074650B13C
:10204000E178090713D436E004F1080001F0E2FD5D
:1020500000280746F4D17068D4F8AC1020F4401082
:102060000843706000202F46E178090723D5D4F893
:10207000841059B1B1F1007F10D0B1F1807F29D126
:10208000D8F8001041F40031C8F8001060B1E178D0
:10209000C90614D401B0BDE8F08F00BF04F10800F8
:1020A00001F0B8FD0028F2D13068D4F8841020F097
:1020B0004070084330603846E178C906EAD5B16817
:1020C000D4F8A82021F400411143B16001B0BDE86B
:1020D000F08F00BF0120E178C906DBD5EFE700BF34
:1020E000D8F8001041F40031C8F80010002802466A
:1020F0007FF445AF3AE700BF012001223FE700BF70
:10210000012001258A027FF54BAF5CE704F12C002A
:1021100001F0FAFD002807467FF493AE88E600BF81
:1021200004F12C0001F0F0FD002882467FF4ABAEF4
:10213000A0E600BF0120012783E600BF01204FF089
:10214000010AA0E601200125A178C9077FF45BAE52
:1021500076E600BFFEF7CCFC054641F2883B03273C
:10216000306980073FF5DCAEFEF7C2FC411B03205F
:102170005945F5D9DDE600002DE9F04F81B0002882
:1021800000F01C8142F20008C4F202080446D8F8AC
:1021900000000D4600F00F0081420DD9D8F8000074
:1021A00020F00F002843C8F80000D8F8000000F025
:1021B0000F00A84240F00281206840F62049C10685
:1021C000C4F202690DD56169D9F8042002F07002E9
:1021D000914206D9D9F8042022F070021143C9F8BF
:1021E000041001070FD52169D9F80020702303EAF4
:1021F0001212914207D9D9F8002022F4E06242EA93
:102200000111C9F8001041070DD5E168D9F8002087
:1022100002F07002914206D9D9F8002022F0700233
:102220001143C9F8001081070DD5A168D9F8002025
:1022300002F00F02914206D9D9F8002022F00F02D5
:102240001143C9F80010C00774D1206881070DD56B
:10225000A168D9F8002002F00F02914206D2D9F805
:10226000002022F00F021143C9F80010D8F8001026
:1022700001F00F018D420DD2D8F8001021F00F01AE
:102280002943C8F80010D8F8001001F00F01A94246
:1022900040F0948041070DD5E168D9F8002002F0A4
:1022A0007002914206D2D9F8002022F07002114348
:1022B000C9F8001001070FD52169D9F80020702353
:1022C00003EA1212914207D2D9F8002022F4E06208
:1022D00042EA0111C9F80010C0060DD56069D9F8AD
:1022E000041001F07001884206D2D9F8041021F0E0
:1022F00070010843C9F8040000F058F9D9F800103B
:1023000046F2F26201F00F01C0F60002525C40F2A8
:102310000401C2F20001096840F2080320FA02F247
:10232000C2F2000308461A6001B0BDE8F04FFEF7A4
:102330003BBC00BF606840F61C47C4F2026798B31C
:1023400002282BD0032835D1D9F874005FEA407AEF
:102350000BD4D9F8740040F00400C9F87400D9F81F
:10236000740000F0040000900098FEF7C1FB4FF6E7
:10237000F03BCFF6FF7B57F80B1049036AD4BAF154
:10238000000F05D4D9F8740020F00400C9F87400D7
:1023900057F81C0C800111D5606813E057F81C0C2D
:1023A00080030BD502200DE057F81C0C400705D523
:1023B000002007E057F81C1C490503D4012001B098
:1023C000BDE8F08F396821F0030108433860FEF75B
:1023D0008FFB61680646032941F2883A33D002290F
:1023E00023D069B9386810F00C0F3FF42EAFFEF718
:1023F0007FFB801B50454FF00300F3D9DFE700BFA0
:10240000386800F00C0004283FF41FAFFEF770FBA3
:10241000801B50454FF00300F2D9D0E7FEF768FB70
:10242000801B50454FF00300C9D8386800F00C00FD
:102430000828F3D109E700BFFEF75AFB801B50457F
:102440004FF00300BBD8386800F00C000C28F3D123
:10245000FBE600BF064600BF57F80B0040043FF5FF
:102460008EAFFEF745FB801B02284FF00300F3D927
:10247000A5E700001F22026040F62042C4F202627B
:1024800052F8043C03F003034360136803F00F03A6
:102490008360136803F07003C360D2F800C0702338
:1024A00003EA1C130361526802F07002426142F2B7
:1024B0000000C4F20200006800F00F0008607047DE
:1024C00080B500F073F840F62041C4F2026109685B
:1024D00046F2F26201F00F01C0F60002515CC84002
:1024E00040F20801C2F20001086080BD80B500F032
:1024F0005DF840F62041C4F202610A6846F2F263D8
:1025000002F00F02C0F600039A5CD04040F20802CD
:10251000C2F200021060096846F20272C1F30211B1
:10252000C0F60002515CC84080BD000080B500F0DC
:102530003DF840F62041C4F202610A6846F2F263B7
:1025400002F00F02C0F600039A5CD04040F208028D
:10255000C2F200021060096846F20272C1F3022161
:10256000C0F60002515CC84080BD000080B500F09C
:102570001DF840F62041C4F202610A6846F2F26397
:1025800002F00F02C0F600039A5CD04040F208024D
:10259000C2F200021060496846F20272C1F30211F1
:1025A000C0F60002515CC84080BD000040F62841E2
:1025B000C4F2026151F80C0C10F00C02086813D040
:1025C0000C2A04BF00F0030001280DD051F80C0CB8
:1025D0009FED3B0A00F00C00042821D142F200409C
:1025E000C0F2F40023E000BF51F8200C000205D433
:1025F000D1F8CC00C0F3033003E000BF51F8200C49
:10260000000F46F28C73C0F6000353F82000002A36
:1026100000EE100A18BF0020B8EE400A07E000BF25
:102620000020082A04BF41F60030C0F2B7000C2A8F
:1026300018BF7047D1F800C00A680B680869DB064C
:10264000C00800EAE370C2F303226FF35F3001EECB
:10265000100AC868B8EE411A6FF35F2003EE100A43
:102660009FED184A013202EE102AB8EE433A21EEED
:10267000044AB8EE421A34EE032AB7EE003A0CF0E0
:10268000030032EE032A022804D0032808BF9FED7E
:102690000F0A01E09FED0C0A80EE010AC868C0F342
:1026A0000660013001EE100AB8EE411A20EE020A6F
:1026B00080EE010ABCEEC00A10EE100A704700BF9F
:1026C00000000000000000390024744B001B374B51
:1026D000002804BF012070472DE9F04381B040F687
:1026E00094490446C4F2026959F8780C59F86C1CF4
:1026F000227800F00C07D00601F0030822D42078DD
:10270000C00779D0082F73D00C2F08BFB8F1030F82
:102710006ED040F60046C4F2026661683068B1F5DA
:10272000803F00F0DF82B1F5A81F00F0D382B1F541
:10273000A02F40F0E98240F480203060306820F41F
:102740008010CDE217B30C2F08BFB8F1010F1DD0D8
:1027500040F60046C4F20266E1693068002900F0E4
:10276000CD8140F001003060FEF7C2F9054600BFA0
:102770003068400700F1D481FEF7BAF9401B022807
:102780004FF00300F4D900F03ABD00BFE069002823
:1027900000F0D68340F60045C4F20265666AA86878
:1027A00000025ABFD9F860000004A86800F0704029
:1027B000864240F27781002F40F03983D9F800003B
:1027C000400700F11983D9F8000040F00400C9F86F
:1027D0000000D9F8000000F0040000900098FEF717
:1027E00017FBD9F8001021F00401C9F8001005E327
:1027F0006068002800F0A483207880072FD5042F7C
:1028000020D00C2F08BFB8F1020F1BD040F60046B5
:10281000C4F20266E1683068002900F0378240F4B3
:1028200080703060FEF764F9054600BF30684005EF
:102830000CD4FEF75DF9401B02284FF00300F5D9D8
:1028400000F0DDBCE068002800F07A8359F8840CC1
:10285000216920F4F81040EA014049F8840C2078FE
:1028600040F600470007C4F2026771D420784007A1
:1028700000F1C6802078800600F1288120780006CB
:1028800000F162812078400600F1AC81A56B002D3B
:1028900000F0D28459F8780C00F00C000C2840F0BD
:1028A000618259F86C1C59F8600C012D00F04883C6
:1028B000E26B01F00303934240F04283226CC1F3C8
:1028C0000323013A934240F03B83626C01F4704170
:1028D000914240F03583A26C01466FF35F21013ACB
:1028E000914240F02D83E16CC0F3462201398A42C7
:1028F00040F02683216DC0F3064201398A4240F040
:102900001F83616DC0F306600139884240F018836F
:1029100059F85C0CE16DC0F3CC00884200F08C8467
:1029200059F86C0C20F0100049F86C0CFEF7E0F838
:102930000546FEF7DDF8A842FBD0E06DC00049F87F
:102940005C0C59F86C0C40F0100000F073BC00BF38
:10295000D9F800005FEA40780BD4D9F8000040F0C5
:102960000400C9F80000D9F8000000F0040000904D
:1029700000984FF62846CFF6FF76B859C00713D116
:10298000B85940F00100B851FEF7B2F8054600BF53
:10299000B859C00708D1FEF7ABF8401B0228F7D999
:1029A000032001B0BDE8F0836069D9F85C1000280D
:1029B00000F0E280A06901F08052904200F0328382
:1029C00001F04062B2F1006F00F0BA82490140F1BB
:1029D0002283D9F85C0020F0A050C9F85C00FEF713
:1029E00087F80546D9F85C00000140F11383FEF733
:1029F0007FF8401B05284FF00300F3D900F0FFBB20
:102A0000D9F800005FEA40780BD4D9F8000040F014
:102A10000400C9F80000D9F8000000F0040000909C
:102A200000984FF62846CFF6FF76B859C00713D165
:102A3000B85940F00100B851FEF75AF8054600BFFA
:102A4000B859C00708D1FEF753F8401B02284FF0D1
:102A50000300F5D9D3E300BFA068C10740F0A2800E
:102A6000D9F85C10002821F00101C9F85C10D9F8F0
:102A70005C1021F00401C9F85C1040F0A180FEF761
:102A800037F8054641F28836D9F85C00800740F1F6
:102A90009782FEF72DF8401BB0424FF00300F3D9A8
:102AA000ADE300BFA868B6F1404F40F40000A86055
:102AB000A86820F0704040EA0600A860C0F0AC8032
:102AC000E868216A20F01F000843F7E1E16A3868EE
:102AD000002900F0ED8040F480503860FEF708F8DF
:102AE000054600BF386880043FF5C8AEFEF700F821
:102AF000401B02284FF00300F4D980E320F00100CE
:102B00003060FDF7F5FF0546306840077FF5F7AD0B
:102B1000FDF7EEFF401B02284FF00300F4D96EE3EF
:102B2000B06840F40000B060B168606A21F07041A4
:102B30000143B0F1404FB160C0F09880F068216A65
:102B400020F01F00084337E2216B3868002900F0AD
:102B5000F78040F480403860FDF7CAFF054600BFAB
:102B6000386800043FF58EAEFDF7C2FF401B022817
:102B70004FF00300F4D942E321F0A050C9F85C0003
:102B8000FDF7B6FF054600BFD9F85C00000140F133
:102B90005F82FDF7ADFF401B05284FF00300F3D91E
:102BA0002DE300BFD9F85C10400705D541F00400C3
:102BB000C9F85C00D9F85C1041F00100C9F85C006C
:102BC000FDF796FF054641F2883600BFD9F85C0054
:102BD000800731D4FDF78CFF401BB0424FF003005B
:102BE000F4D90CE3606B002800F0F280B86840F480
:102BF0000000B860B968D4E9090221F07061B0F151
:102C0000404F41EA0201B960C0F04481F868216A8E
:102C100020F01F000843DFE2B6F1FF3F40F32881B8
:102C2000E968206AB6F1804FC0F0448121F4F84190
:102C300041EA802042E100BFA168D9F85C000906A2
:102C400000F1B28020F0800041F28836C9F85C00C3
:102C5000D9F85C00000540F1B881FDF749FF401B41
:102C6000B0424FF00300F3D9C9E200BFB0F1FF3F1B
:102C700040F37281F268216AB0F1804FC0F0988110
:102C800022F4F84040EA812096E100BF20F48070F1
:102C90003060FDF72DFF0546306840057FF5DFAD5C
:102CA000FDF726FF401B02284FF00300F4D9A6E2EF
:102CB00020F480503860FDF71BFF0546386880041B
:102CC0007FF5DCADFDF714FF401B02284FF0030039
:102CD000F4D994E240F480203060306840F48010F1
:102CE0003060306840F480303060FDF701FF054609
:102CF000306880033FF580ADFDF7FAFE401B642885
:102D00004FF00300F4D97AE220F48030306030686C
:102D1000002920F480203060306820F4801030607A
:102D2000E3D1FDF7E5FE0546306880037FF564AD2D
:102D3000FDF7DEFE401B64284FF00300F4D95EE28D
:102D400020F480403860FDF7D3FE05463868000463
:102D50007FF598ADFDF7CCFE401B02284FF0030035
:102D6000F4D94CE2386820F080703860FDF7C0FE7E
:102D7000022D05460CD13868800140F17581FDF7C0
:102D8000B7FE401B02284FF00300F4D937E200BF22
:102D90003868800140F1F681FDF7AAFE401B022849
:102DA0004FF00300F4D92AE240F0800041F2883667
:102DB000C9F85C00D9F85C00000500F10681FDF758
:102DC00097FE401BB0424FF00300F3D917E200BF5B
:102DD000386820F010003860FDF78AFE054600BF15
:102DE000386880067FF552ADFDF782FE401B022851
:102DF0004FF00300F4D902E2FEF70AF820F4803124
:102E0000B1F5003F3CD10021B6F1805F38BF012110
:102E100042F20000C4F20200026822F00F020A44EB
:102E20000260006800F00F00884240F08980A868C6
:102E300040F40000A860A968606A21F07041014375
:102E4000B0F1404FA96005D3E868216A20F01F0067
:102E500008438DE0B0F1FF3F76DDEA68216AB0F10A
:102E6000804FC0F0818022F4F84040EA81207FE06A
:102E7000E868216A20F4787040EA41101EE000BF43
:102E80000021B1EB167F40F0AD80B0F5803F57D107
:102E90000321BDE7B0F1FF3F40F37C81FA68216A6E
:102EA000B0F1804FC0F0948122F4F84040EA8120D4
:102EB00092E100BF21F4782141EAC030002FE860A0
:102EC00057D1D9F80000400714D4D9F8000040F0D9
:102ED0000400C9F80000D9F8000000F004000090D8
:102EE0000098FDF795FFD9F8001021F00401C9F80A
:102EF000001001E0FDF78CFF20F48031B1F5003FB8
:102F000014D10021B6F1805F38BF012142F20000E8
:102F1000C4F20200026822F00F020A440260006854
:102F200000F00F00884224D00AE000BF0021B1EB7E
:102F3000167F63D1B0F5803F02D10321E6E700BFE1
:102F4000012001B0BDE8F083E868216A20F47870C0
:102F500040EA41100CE000BFF068216A20F478706C
:102F600040EA411028E000BF22F4782040EAC13056
:102F7000E860FFF71BFB59F8741C46F2F26201F09F
:102F80000F01C0F60002515C40F2080220FA01F184
:102F900040F20400C2F200000068C2F200021160B8
:102FA000FDF702FE002840F02A81FFF7A8BB00BF12
:102FB00022F4782040EAC130F060FFF7A0BB00BFE8
:102FC000D9F85C00000600F1ED80B8F1000F3FF584
:102FD00051ACD9F8000020F00400C9F80000FFF758
:102FE00049BC00BFB6F1005F40F20C8100287FF4BD
:102FF0000FAFB6F1405F98BF012109E7B6F1005F5E
:1030000040F20A8100287FF481AFB6F1405F98BF9B
:1030100001217BE7A069D9F85C1021F080510843B9
:10302000C9F85C00D9F85C0040F08060C9F85C0029
:10303000FDF75EFD054600BFD9F85C00000107D42E
:10304000FDF756FD401B05284FF00300F4D9D6E0EC
:10305000B8F1000F3FF50AACD9F8000020F00400E9
:10306000C9F80000FFF702BCD9F800005FEA407C15
:103070000BD4D9F8001041F00401C9F80010D9F8B8
:10308000001001F00401009100994FF60C48CFF6B2
:10309000FF7857F808E057F808304FF6037623F426
:1030A000802347F8083059F86C3CD4E91102B34347
:1030B000D4E90F656FF0FF013343184301EB05219D
:1030C0004FF47E43084349F86C0C59F8600C00211A
:1030D000C8F280010840511EE26C4FF4FE0503EB7C
:1030E0004222236D6FF35F2105EB0343656D92B2BE
:1030F0004FF0FE4606EB0565084403F4FE0310445A
:1031000005F0FE451844284449F8600C59F86C0C49
:1031100020F0100049F86C0CE06DC00049F85C0C20
:1031200059F86C0C40F0100049F86C0C59F86C0C14
:10313000A16D20F00C0008435FEA4E3149F86C0C99
:1031400005D557F8080040F4802047F80800BCF186
:10315000000F05D4D9F8000020F00400C9F80000E1
:10316000386840F080703860FDF7C2FC044638686B
:1031700080015BD4FDF7BCFC001B02284FF003006C
:10318000F5D93CE059F86C0C4FF6FC71CFF6F871AC
:1031900008404FE0F868216A20F4787040EA411056
:1031A0001AE000BFD9F85C0041F2883620F08000B8
:1031B000C9F85C00D9F85C0000057FF506AFFDF7A3
:1031C00097FC401BB0424FF00300F3D917E000BF5B
:1031D00022F4782040EAC130F860386840F01000EE
:1031E0003860FDF785FC0546386880063FF54EAB34
:1031F000FDF77EFC401B02284FF00300F4D901B01C
:10320000BDE8F083B6F1805F1AD10221B0F5803FAE
:1032100008BF0121FCE500BFB6F1805F12D1022199
:10322000B0F5803F08BF012170E600BF59F86C0C73
:1032300040F4802049F86C0C002001B0BDE8F08318
:103240000121E5E5012161E6042888BF7047DFE838
:1032500000F0031B13352D004EF21000CEF20000DB
:10326000016821F00401016040F6E040C4F2026010
:10327000016821F4400120E04EF21000CEF200007F
:103280000168022206E000BF4EF21000CEF20000FC
:103290000168012221F00401016040F6E040C4F21F
:1032A0000260016862F3975107E000BF4EF2100020
:1032B000CEF20000016841F0040101607047000097
:1032C0007047000070470000704700007047000022
:1032D000704700007047000070470000002804BFDE
:1032E0000120704710B5044690F83D0028B9002031
:1032F00084F83C00204600F023F8022084F83D00CA
:103300002068211D00F000FE012084F8480084F8A8
:103310003E0084F83F0084F8400084F8410084F8BF
:10332000420084F8430084F8440084F8450084F89F
:10333000460084F8470084F83D00002010BD0000DE
:103340007047000090F83D10012921D1022180F83A
:103350003D100168C868B1F1A04F40F00100C8609D
:1033600018DA40F6FF30C4F20000814228DD43F253
:10337000FF30C4F2010081423EDC40F60040C4F25E
:103380000000814250D042F60040C4F2010049E002
:103390000120704740F6FF30C5F2000081421DDD7C
:1033A00043F2FF30C5F20100814231DC40F60040BB
:1033B000C5F20000814237D042F6004030E000BF45
:1033C000B1F1804F30D040F20040C4F200008142A1
:1033D0002AD040F60000C4F2000023E0B1F1A04F73
:1033E00022D040F20040C5F2000081421CD040F6DD
:1033F0000000C5F2000015E043F20040C4F20100F5
:10340000814211D044F20000C4F201000AE000BF82
:1034100044F20000C5F20100814205D043F20040B1
:10342000C5F2010081420DD188680722C0F2010275
:103430000240062A4FF0000018BFB2F5803F01D1CC
:10344000704700BF086840F0010008600020704726
:1034500070470000F0B581B004460068C568066991
:10346000B10717D515F0020114D06FF00201016108
:10347000012121778069800704D02046FFF7E8FF0B
:1034800006E000BF204600F0CBF8204600F0CAF866
:1034900000202077700719D515F0040016D0206899
:1034A0006FF00401016102212177806910F4407FEF
:1034B00004D02046FFF7CCFF06E000BF204600F016
:1034C000AFF8204600F0AEF800202077300717D57F
:1034D00015F0080014D020686FF008010161042184
:1034E0002177C069800703D02046FFF7B1FF05E0D0
:1034F000204600F095F8204600F094F80020207750
:10350000F00619D515F0100016D020686FF01001E4
:10351000016108212177C06910F4407F04D0204662
:10352000FFF796FF06E000BF204600F079F820463E
:1035300000F078F800202077F00718BF15F00100A0
:1035400006D020686FF001010161204600F06CF8A0
:1035500016F4025F05F0800718BF002F02D1F005B6
:1035600009D410E020686FF4025101612046FFF792
:10357000A9FEF00507D537B120686FF480710161AD
:103580002046FFF79DFE700609D515F0400006D0D5
:1035900020686FF040010161204600F04FF8B0064E
:1035A00009D515F0200006D020686FF020010161D8
:1035B0002046FFF789FEF00209D515F4801006D0E9
:1035C00020686FF4801101612046FFF781FEB00290
:1035D00009D515F4001006D020686FF400110161C0
:1035E0002046FFF773FE700209D515F4800006D05F
:1035F00020686FF4800101612046FFF76BFE300206
:103600000CD515F4000009D021686FF400022046A3
:103610000A6101B0BDE8F040FFF75EBE01B0F0BD49
:103620007047000070470000006841F20041C4F29A
:103630000001884218BF7047FDF77ABA7047000052
:1036400090F88410012904BF022070472421C0F89B
:10365000881001680A680B6822F0005223F0010309
:103660000B60002343660A602021C0F8881080F8B0
:10367000843000207047000090F88420012A04BFA5
:1036800002207047B0B52422C0F888200268D0F824
:1036900064E0D2F800C01368BEF1000F23F001030C
:1036A0001360936823F0606341EA0301916019D0CD
:1036B0009368916846F2E47E490FC0F6000E46F228
:1036C000EC751EF80140C0F60005C3F34263695C67
:1036D000E400B4FBF1F11EF80340EB5CE500B5FB40
:1036E000F3F301E001210123A0F86A102021A0F8E2
:1036F0006830C2F800C0C0F88810002180F884103B
:103700000020B0BD90F88420012A04BF0220704739
:10371000B0B52422C0F888200268D0F864E0D2F85E
:1037200000C01368BEF1000F23F00103136093681B
:1037300023F0604341EA0301916019D093689168D6
:1037400046F2E47E490FC0F6000E46F2EC751EF814
:103750000140C0F60005C3F34263695CE400B4FBBA
:10376000F1F11EF80340EB5CE500B5FBF3F301E07B
:1037700001210123A0F86A102021A0F86830C2F8C6
:1037800000C0C0F88810002180F884100020B0BD6F
:1037900010B5D8B10446D0F8880028B9002084F8C4
:1037A0008400204600F026F82420C4F88800206811
:1037B000A16A0268002922F0010202601CBF2046B3
:1037C00000F0E2FC204600F009FE08B1012010BD27
:1037D0002168486820F490404860886820F02A00FA
:1037E0008860086840F0010220460A60BDE8104089
:1037F00000F03EBDB0B5B8B0044602A800250830C0
:10380000B8213795CDE93555CDE93355FCF72AFF79
:10381000206843F60001C4F20101884202D038B0AA
:10382000B0BD00BF0120029002A80395FEF7CAF9BF
:10383000002818BFFDF728F840F68C40C4F202605B
:10384000816941F480418161816901F48041019184
:103850000199016841F001010160006833A900F09D
:103860000100019001984FF4C06033900220349021
:103870000020CDE93500072037900020C4F2022057
:10388000FDF706F838B0B0BD2DE9F0410446D0F898
:10389000880020281CBF0220BDE8F08100294FF0DD
:1038A000010018BF002A01D1BDE8F08120688846D8
:1038B00081681D461646090603D5816821F08001FE
:1038C00081600020C4F890002120C4F88800FDF732
:1038D0000FF9A4F85460A4F85660A1680646B1F543
:1038E000805F02D12069002864D047460020B4F8E8
:1038F00056202168002A65D06A1C26D0002D51D0A0
:10390000804600BFC869000608D4FDF7F1F8801BA7
:10391000A84200F2818021680868F3E717B117F820
:10392000010B04E038F8020B00276FF35F20886278
:10393000B4F856000138A4F85600B4F85600002830
:10394000E0D13FE0CA69120609D4CA69120606D45A
:10395000CA6912065CBFCA695FEA0262F2D51FB18A
:1039600017F8012B05E000BF30F8022B00276FF39A
:103970005F228A62B4F85620013AA4F85620B4F8BF
:103980005620002AE1D11DE030F8022B00276FF30A
:103990005F228A62B4F85620013AA4F85620B4F89F
:1039A00056207AB1CA69120634D5002FECD017F828
:1039B000012BEEE700274046B4F856202168002A84
:1039C0007FF49AAFC86940061ED41DB3681C14D199
:1039D000C869400626D4C869400623D4C869400691
:1039E00020D4C86940064FF00000F1D50DE000BFBB
:1039F00020680168C069400614D4FDF779F8801B7F
:103A0000A842F5D908E000BF00202021C4F88810A2
:103A1000BDE8F081FDF76CF803202021C4F8881080
:103A2000BDE8F08100202021C4F88810BDE8F081B5
:103A3000FEE7000010B543F6256046F2F472C0F6CA
:103A40000000C0F60002002101F02EF840F27004E0
:103A5000C2F20004206043F62D6046F61802C0F65C
:103A60000000C0F60002002101F01EF8606043F67D
:103A7000496046F63C02C0F60000C0F60002002194
:103A800001F012F8A06010BD70B586B0002540F6B8
:103A90008C400595CDE90355CDE90155C4F202608E
:103AA000016840F6000441F0040101600168C4F2BD
:103AB000022401F00401009100990168002241F004
:103AC0008001016001684FF4005601F0800100910F
:103AD0000099016841F00101016000684FF4005154
:103AE00000F00100009000982046FCF7FBFF012049
:103AF000CDE9020501A9204601960495FCF7C8FE10
:103B000006B070BD80B50020FCF7F8FF002818BF94
:103B1000FCF7BAFEFDF702F8002808BF80BDBDE83B
:103B20008040FCF7B1BE000080B540F2C81043F6FB
:103B300000034FF4E131C2F200000022C4F201039D
:103B40004FF00C0CC0E90031C0E90222C0E9042C9E
:103B5000C0E90622C0E908228262FFF719FE0028A8
:103B600018BFFCF791FE40F2C810C2F2000000211D
:103B7000FFF7C8FD002818BFFCF786FE40F2C8100A
:103B8000C2F200000021FFF777FD002818BFFCF704
:103B90007BFE40F2C810C2F20000FFF751FD002882
:103BA00008BF80BDBDE88040FCF76EBEFEE70000A8
:103BB000FEE7000000000000000000000000000020
:103BC000EFF30980EFF30B82734620E9FC0F104AF4
:103BD000116808604FF0500080F31188BFF34F8FD9
:103BE000BFF36F8F02F06EF84FF0000080F3118882
:103BF000074A11680868B0E8FC0F82F30B8880F36D
:103C00000988184700BF00BF00BF00BF00BF00BF4A
:103C10004C03002070B540F62C46C4F2026656F8FC
:103C20002C1C044621F0806046F82C0CFCF760FF49
:103C3000054600BF56F82C0C000105D5FCF758FFCF
:103C4000401B0228F6D95CE0306840F603718843D7
:103C500094E80E106FF0FF0505EB022208431043B5
:103C6000306030690021C8F2800100EA010E591E5F
:103C70004FF47E42236902EB4C224FF4FE0505EB24
:103C8000034365696FF35F2192B24FF0FE4000EB92
:103C90000560714403F4FE03114400F0FE40194432
:103CA000084430613068A16920F00C00084330609E
:103CB000206A31680843306030684FF6F87120F0B0
:103CC000100030607069E269884340EAC2007061A8
:103CD000306840F01000306056F82C0C40F08060E6
:103CE00046F82C0CFCF704FF044600BF56F82C0CD9
:103CF000000144BF002070BDFCF7FAFE001B032842
:103D0000F4D3032070BD000070B540F63046C4F215
:103D1000026656F8301C044621F0805046F8300CFC
:103D2000FCF7E6FE054600BF56F8300C800005D5CE
:103D3000FCF7DEFE401B0228F6D95CE0306840F656
:103D40000371884394E80E106FF0FF0505EB022223
:103D500008431043306070690021C8F2800100EA16
:103D6000010E591E4FF47E42236902EB4C224FF4A0
:103D7000FE0505EB034365696FF35F2192B24FF0D7
:103D8000FE4000EB0560714403F4FE03114400F0B3
:103D9000FE401944084470613068A16920F00C00AD
:103DA00008433060206A31680843306030684FF65D
:103DB000F87120F010003060B069E269884340EA91
:103DC000C200B061306840F01000306056F8300C2E
:103DD00040F0805046F8300CFCF78AFE044600BFE5
:103DE00056F8300C800044BF002070BDFCF780FE08
:103DF000001B0328F4D3032070BD00000000000066
:103E00001EF0040F0CBFEFF30880EFF309800449A4
:103E1000084700BF00BF00BF00BF00BF00BF00BF1A
:103E2000C1570008012000F0C7FDFBE740F6000481
:103E3000C4F2022420464FF40051FCF74BFE4FF42D
:103E40007A7000F0B9FDF5E788B040F2C81600229C
:103E50000CA46D46C2F2000628462146571CFCF70A
:103E6000EFFA2846FCF770FB82B2304629464FF441
:103E70007A73FFF709FD4FF47A7000F09DFD3A4622
:103E8000EAE700BF256454696D65730A000000000D
:103E900080B54EF21000CEF20000006802F000FA89
:103EA000012808BF80BDBDE8804001F0FFBF0000D1
:103EB0004EF6885CCEF2000CDCF80010012241F4D2
:103EC0007001CCF8001040F60041C4F202610A60B3
:103ED0000022CA610A624A620B684FF6FF70CEF692
:103EE000F620184008608A62086820F48020086084
:103EF0004FF000600A654CF8800C704740F27C106F
:103F0000C2F20000FFF7A6BA10B5D0F800E0B0F199
:103F1000A04F13DA40F6FF33C4F20003984221DCCD
:103F2000B0F1804F42D040F20043C4F20003984207
:103F30003CD040F60003C4F2000335E040F6FF3306
:103F4000C5F2000398421FDCB0F1A04F2ED040F222
:103F50000043C5F20003984228D040F60003C5F2A2
:103F6000000321E040F60043C4F2000398421DD054
:103F700042F60043C4F20103984217D043F20043D3
:103F8000C4F2010310E000BF40F60043C5F2000395
:103F900098420BD043F20043C5F20103984205D08A
:103FA00042F60043C5F20103984204D14B682EF05B
:103FB000700243EA020E42F6FF3CB0F1A04FC5F298
:103FC000010C1DDA42F6FF33C4F2010398422FDDE3
:103FD00043F6FF73C4F2010398425DDD44F200032F
:103FE000C4F2010398426FD044F20043C4F20103CB
:103FF000984269D044F60003C4F2010362E000BFB6
:10400000604523DD43F6FF73C5F2010398424FDD9F
:1040100044F20003C5F20103984255D044F6000370
:10402000C5F2010398424FD044F2004348E000BF7C
:1040300040F2FF73C4F20003984215DCB0F1804FE8
:1040400042D040F20043C4F200033BE040F2FF7371
:10405000C5F20003984213DCB0F1A04F34D040F217
:104060000043C5F200032DE040F60003C4F2000354
:10407000984229D040F60043C4F2000322E000BF7A
:1040800040F60003C5F2000398421DD040F60043FD
:10409000C5F2000316E000BF42F60043C4F201037C
:1040A000984211D043F20043C4F201030AE000BF7A
:1040B00042F60043C5F20103984205D043F20043A3
:1040C000C5F20103984204D1CB682EF4407243EA52
:1040D000020E0A688C684B696045C462826217DC14
:1040E00043F6FF72C4F20102904227DD44F200025F
:1040F000C4F20102904239D044F20042C4F20102FB
:10410000904233D044F60002C4F201022CE000BF1A
:1041100043F6FF72C5F2010290421BDD44F2000239
:10412000C5F20102904221D044F60002C5F201021C
:1041300090421BD044F2004214E000BF42F600421D
:10414000C4F20102904211D043F20042C4F20102D3
:104150000AE000BF42F60042C5F20102904205D0DB
:1041600043F20042C5F20102904201D109690163A4
:1041700002682EF0800142F004021943026001221D
:104180004261016010BD0000816A0A070CD4CA07B1
:1041900015D18A071ED44A0727D4CA0630D48A0606
:1041A00039D44A0642D457E00268D0F838C0536880
:1041B00023F4004343EA0C035360CA07E9D00268C2
:1041C000D0F82CC0536823F4003343EA0C03536047
:1041D0008A07E0D50268D0F830C0536823F48033F2
:1041E00043EA0C0353604A07D7D50268D0F834C0BD
:1041F000536823F4802343EA0C035360CA06CED5E8
:104200000268D0F83CC0936823F4805343EA0C035F
:1042100093608A06C5D50268D0F840C0936823F43D
:10422000005343EA0C0393604A0615D5D0F800C04A
:10423000436CDCF80420B3F5801F22F4801242EABC
:104240000302CCF8042007D1DCF80420836C22F4AC
:10425000C0021A43CCF80420090658BF7047016811
:10426000C06C4A6822F40022104348607047000086
:10427000B0B582B004460020C4F89000FCF738FCCA
:10428000216805460A68120737D56FF07E4C204634
:104290004FF4001100222B46CDF800C000F0A4F925
:1042A00050B300BF206850E8000F216820F0800064
:1042B00041E80002DAB1206850E8000F216820F0E0
:1042C000800041E8000292B1206850E8000F2168A8
:1042D00020F0800041E800024AB1206850E8000F59
:1042E000216820F0800041E80002002ADAD1032092
:1042F000202188226BE000BF2168086840075DD557
:104300006FF07E4C20464FF4800100222B46CDF802
:1043100000C000F069F9002850D000BF206850E8C4
:10432000000F216820F4907041E80002BAB32068C1
:1043300050E8000F216820F4907041E8000272B349
:10434000206850E8000F216820F4907041E80002D6
:104350002AB3206850E8000F216820F4907041E8EB
:104360000002002ADAD11AE0206850E8020F216822
:1043700020F0010041E80202DAB1206850E8020FA3
:10438000216820F0010041E8020292B1206850E863
:10439000020F216820F0010041E802024AB12068C2
:1043A00050E8020F216820F0010041E80202002AD3
:1043B000DAD1032020218C2209E000BF2020C4F89C
:1043C0008800C4F88C00002170220020E166A15012
:1043D000002184F8841002B0B0BD000070B504461E
:1043E0002269D4E90213006811436269E66905682D
:1043F000114346F6F312CCF6FF722A4011433143C3
:10440000016041684FF2FF4521F44051194341607A
:1044100042F20041A26940F08053C5F200618B4234
:104420001CBF236A1A438368C1F2FF152B401A434D
:104430008260C26A636A22F00F021A4344F6FF7375
:10444000C4F200039842C2621ADD42F2FF32C4F2A3
:104450000062904230DC45F20001C4F20001884263
:1044600000F07E8043F60001C4F20101884257D17A
:1044700001200021FCF732FFB6F5004F33D056E0A3
:1044800044F20041C4F20001884225D044F6000104
:10449000C4F20001884200F09D8044F60041C4F25D
:1044A000000188423CD108200021FCF717FFB6F537
:1044B000004F18D03BE000BF42F20042C4F200625D
:1044C000904255D088422BD100200021FCF706FFF6
:1044D000002853D142E000BF02200021FCF7FEFE7D
:1044E000B6F5004F23D1C8B3616A46F2CC72C0F66C
:1044F000000232F811106268B0FBF1F0510801EBD4
:104500004000B0FBF2F04FF6EF72A0F110019142C3
:1045100058D84FF6F071C0F34202084010441BE037
:1045200000200021FCF7DAFEB6F5004FDBD0A8B181
:10453000616A46F2CC72C0F6000232F8111062686D
:10454000B0FBF1F000EB5200B0FBF2F04FF6EF726F
:10455000A0F11001914235D82168C860002032E0F6
:1045600010200021FCF7BAFEB6F5004FDFD1BAE704
:1045700020200021FCF7B2FE0028EFD0616A46F24D
:10458000CC72C0F6000232F811106268B0FBF1F193
:1045900002EB420081424FF0010014D31303994211
:1045A00011D808020B0E10EB520043F1000100235A
:1045B000FBF7CEFE4FF60052A0F54071C0F20F029D
:1045C0009142C9D301204FF00111A1660021C4E935
:1045D0001D1170BD04200021FCF780FEB6F5004FD0
:1045E0003FF481AFA3E700002DE9F0418046006869
:1045F0001546C2690E461140891BB1FA81F149097D
:104600008D4223D1069C2CB3611C29D1C169314054
:10461000891BB1FA81F149098D4217D1C169314035
:10462000891BB1FA81F149098D420FD1C16931402D
:10463000891BB1FA81F149098D4207D1C169314025
:10464000891BB1FA81F149098D42DFD00020BDE814
:10465000F08100BFFCF74CFA0320BDE8F08100BFF9
:104660001F4607E0C0693040801BB0FA80F0400967
:104670008542EBD1FCF73CFAC01BA04284BF03206B
:10468000BDE8F081D8F8000001684907EAD5402E5E
:1046900018BF802EE6D0C169090700F1A180C16969
:1046A0000905DFD54FF400610162D8F8000050E839
:1046B000000FD8F8001020F4907041E800020AB30F
:1046C000D8F8000050E8000FD8F8001020F49070DF
:1046D00041E80002B2B1D8F8000050E8000FD8F865
:1046E000001020F4907041E800025AB1D8F80000A0
:1046F00050E8000FD8F8001020F4907041E8000254
:10470000002AD2D14FF6FE70CEF6FF70D8F8001016
:1047100051E8021FD8F80020014042E80213F3B12B
:10472000D8F8001051E8021FD8F80020014042E8F4
:104730000213A3B1D8F8001051E8021FD8F80020E6
:10474000014042E8021353B1D8F8001051E8021FAB
:10475000D8F80020014042E80213002BD6D1D8F847
:104760006C0001282CD1D8F8000050E8000FD8F8D0
:10477000001020F0100041E800020AB3D8F8000051
:1047800050E8000FD8F8001020F0100041E80002B7
:10479000B2B1D8F8000050E8000FD8F8001020F0AF
:1047A000100041E800025AB1D8F8000050E8000FAC
:1047B000D8F8001020F0100041E80002002AD2D101
:1047C00020200021C8F88C00C8F86C10C8F87410BC
:1047D000C8F89000032088F88410BDE8F08100BF7D
:1047E00008210162D8F8000050E8000FD8F8001046
:1047F00020F4907041E800020AB3D8F8000050E8B5
:10480000000FD8F8001020F4907041E80002B2B117
:10481000D8F8000050E8000FD8F8001020F490708D
:1048200041E800025AB1D8F8000050E8000FD8F86B
:10483000001020F4907041E80002002AD2D14FF617
:10484000FE70CEF6FF70D8F8001051E8021FD8F8BD
:104850000020014042E80213F3B1D8F8001051E8FB
:10486000021FD8F80020014042E80213A3B1D8F893
:10487000001051E8021FD8F80020014042E802135E
:1048800053B1D8F8001051E8021FD8F800200140B9
:1048900042E80213002BD6D1D8F86C0001282CD1A5
:1048A000D8F8000050E8000FD8F8001020F01000F1
:1048B00041E800020AB3D8F8000050E8000FD8F829
:1048C000001020F0100041E80002B2B1D8F800005A
:1048D00050E8000FD8F8001020F0100041E8000266
:1048E0005AB1D8F8000050E8000FD8F8001020F0B6
:1048F000100041E80002002AD2D12020C8F88C0024
:1049000000200821C8F86C00C8F87400C8F890109E
:1049100088F884000120BDE8F0810000FEE7000077
:104920009EB0FCF713F906A804303421FBF79AFE79
:104930004FF44030FCF7EEF910B172B6FEE700BF5D
:10494000102001214FF400520690CDE90D100220F5
:1049500017920A220024CDE91401CDE91820CDE9EF
:104960001A010C200325CDE91C0406A80F94169506
:10497000FDF7AEFE10B172B6FEE700BF1F20CDE915
:10498000000568460421CDE90244CDE90444FDF761
:10499000F3FB18B172B600BFFEE700BFFFF774F873
:1049A000FFF7B0F8FFF7C0F800F026F8FFF742F87D
:1049B00000F04AF8FEE70000EFF3058100291CBF74
:1049C0006FF00500704710B5044601F069FC014620
:1049D0002046012906D1002818BF01F01BF800204D
:1049E00010BD00BFEFF3108119B9EFF31181002959
:1049F000F1D06FF0050010BDEFF3058000281CBF5B
:104A00006FF00500704780B501F04AFC012811D114
:104A100001F046FC01284FF0FF3018BF80BD40F286
:104A20007811C2F200010A68002A02BF0120086062
:104A3000002080BDEFF3108018B9EFF3118000283B
:104A4000E6D06FF0050080BDEFF3058000281CBFA5
:104A50006FF00500704780B501F022FC012819D1E4
:104A600001F01EFC01284FF0FF3012D140F2781106
:104A7000C2F200010A68012A18BF80BD4EF61F501D
:104A8000CEF20000002202700220086001F0AEF8B1
:104A9000002080BDEFF3108018B9EFF311800028DB
:104AA000DED06FF0050080BD2DE9F04385B0002415
:104AB0000494EFF305831BB1204605B0BDE8F083F5
:104AC000154604460E4601F0EBFB012808D12046AE
:104AD000B4462B46BCB90024204605B0BDE8F0839F
:104AE000EFF3108020B10024204605B0BDE8F0832C
:104AF0002046EFF31181002C4FF00004DCD0002998
:104B0000B4462B46D8D14FF000045BB39D69002D0D
:104B100008BF1825382DCFD81979C907CCD1D3F8BB
:104B20001480D3E902E94FEA98021968B8F1000F3E
:104B3000174608BF8027BEF1000F27D0B9F15C0FE0
:104B4000BAD31B69002B18BFB8F1000FB4D0CDE960
:104B500000536346CDF808E001F06AFB05B0BDE8FC
:104B6000F08300BF802718250021BAB20DF1100C88
:104B70003346CDE9005C01F02BFB0499012808BF06
:104B80000C46204605B0BDE8F08300BFB9F1000F28
:104B90007FF492AF1A69002A7FF48EAFE5E7000038
:104BA0002DE9F04381B0044600F080FD40F27C0620
:104BB000C2F20006B06840F24C380130B060C2F278
:104BC0000008D8F8000040F25035C2F2000568B184
:104BD000F068002840F00A81D8F80000E16AC06A55
:104BE000884298BFC8F8004000E100BFC8F8004004
:104BF000B068012840F0FA80284600F015FD05F164
:104C0000140000F011FD05F1280000F00DFD05F184
:104C10003C0000F009FD05F1500000F005FD05F134
:104C2000640000F001FD05F1780000F0FDFC05F1E5
:104C30008C0000F0F9FC05F1A00000F0F5FC05F196
:104C4000B40000F0F1FC05F1C80000F0EDFC05F146
:104C5000DC0000F0E9FC05F1F00000F0E5FC05F5F2
:104C6000827000F0E1FC05F58C7000F0DDFC05F5CC
:104C7000967000F0D9FC05F5A07000F0D5FC05F5A4
:104C8000AA7000F0D1FC05F5B47000F0CDFC05F57C
:104C9000BE7000F0C9FC05F5C87000F0C5FC05F554
:104CA000D27000F0C1FC05F5DC7000F0BDFC05F52C
:104CB000E67000F0B9FC05F5F07000F0B5FC05F504
:104CC000FA7000F0B1FC05F5027000F0ADFC05F5DE
:104CD000077000F0A9FC05F50C7000F0A5FC05F5C7
:104CE000117000F0A1FC05F5167000F09DFC05F5B3
:104CF0001B7000F099FC05F5207000F095FC05F59F
:104D0000257000F091FC05F52A7000F08DFC05F58A
:104D10002F7000F089FC05F5347000F085FC05F576
:104D2000397000F081FC05F53E7000F07DFC05F562
:104D3000437000F079FC05F5487000F075FC05F54E
:104D40004D7000F071FC05F5527000F06DFC05F53A
:104D5000577000F069FC05F55C7000F065FC05F526
:104D6000617000F061FC05F5667000F05DFC05F512
:104D70006B7000F059FC05F5707000F055FC05F5FE
:104D8000757000F051FC05F57A7000F04DFC05F5EA
:104D90007F7000F049FC05F5826000F045FC05F2EB
:104DA000244000F041FC05F5876000F03DFC05F271
:104DB0004C4000F039FC40F25019C2F2000948465C
:104DC00000F032FC09F11407384600F02DFC06F122
:104DD0004C0000F029FC06F1380000F025FC06F13B
:104DE000600000F021FCC6F81890F7613068316A65
:104DF000421CE06A32608842626488BF306200EB25
:104E00008000231D05EB80014A6861619768C4E951
:104E100002277B60936055F82010013145F820107F
:104E200000F054FCF06858B1D8F80000E16AC06A9C
:104E3000884205D201B0BDE8F04300F0E9BC00BFF4
:104E400001B0BDE8F083000040F27C0540F250362E
:104E5000C2F20005C2F2000603E000BF204600F0E7
:104E60004DFC6868D0B100F021FC686CC468201D5E
:104E700000F0A4FBA8680138A86068680138686081
:104E800000F024FC94F859000228EAD00128E5D06B
:104E900050B9206B00F032FCE0E700BF3068022818
:104EA000DFD300F0B5FCDCE700F07CFBFEE70000A0
:104EB0002DE9F04381B00A9C8146206B16460F46CF
:104EC000089D9100A5229846FBF7A2FB206B002FBE
:104ED00042D0397884F83410D9B3797884F8351011
:104EE000B9B3B97884F8361099B3F97884F83710E3
:104EF00079B3397984F8381059B3797984F839104D
:104F000039B3B97984F83A1019B3F97984F83B10B8
:104F1000F9B1397A84F83C10D9B1797A84F83D1026
:104F2000B9B1B97A84F83E1099B1F97A84F83F1092
:104F300079B1397B84F8401059B1797B84F84110FC
:104F400039B1B97B84F8421000291CBFF97B84F881
:104F50004310002184F84310382D03D300F022FBC6
:104F6000FEE700BF00EB8600099F043820F007062B
:104F7000201DE562E56400F063FB04F1180000F019
:104F80005FFBC5F13800216BA06130464A464346BD
:104F90002461646200F0CEFA002F206018BF3C60EC
:104FA00001B0BDE8F083000010B582B00020019090
:104FB00040F20C00C2F20000046800F0F3FA601C3A
:104FC00008D000BFFEE700BF019830B9019820B9B2
:104FD000019810B901980028F6D002B010BD000069
:104FE00084B040F2F009C2F20009E846D9F808009E
:104FF0000668002E1ABFC0680768002700F05AFE36
:1050000001F05EF9D9F810108346884221D3002EB2
:10501000C9F810B062D05F4560D801F077FAD9F8CE
:105020000800C068C66806F1040A504600F0C6FAD7
:1050300096F82800410739D400F0FA0086F82800D5
:105040006AE000BF00F0FA0086F82800316A3046B6
:105050008847D9F808000168B1B3C068C668056818
:10506000371D384600F0AAFA96F828004107E9D51E
:10507000B069441974604019366108D2316A30460B
:105080008847B0692118044474603661F6D3D9F8B2
:105090000C00394600F0D8FAD8E700BFABEB0701A7
:1050A000814233D3316A304688472746B06936613A
:1050B000C4195C457460F1D9BB4509F1080027D2D9
:1050C000BC42EFD224E000BFD9F80C10C9F810B0F0
:1050D000C9E9021001F01AFA28E000BF16B1002257
:1050E00006E000BFD9F80C000068B0FA80F0420971
:1050F000D9F80000A7EB0B0100F02EFC01F006FA36
:10510000002808BF00F084FB10E000BF09F10C008C
:105110000068514600F098FA316A3046884705E049
:1051200009F10C063068394600F08EFAD9F8000013
:105130004146002200F01EFF00283FF457AF0098C0
:10514000B0F1FF3F06DCDDE90120039990470098AC
:105150000028EBD4DDF808B0DBF8140000281CBFF1
:105160000BF1040000F02AFA01F0AAF8D9F81010A7
:105170008246884207D32FE000F0FA0087F8280023
:10518000396A38468847D9F80800016801B3C06811
:10519000C76805683C1D204600F010FA97F8280003
:1051A0004107E9D5B86946197E6040193F6108D2C8
:1051B000396A38468847B869311806447E603F61CD
:1051C000F6D3D9F80C00214600F03EFAD8E700BF2C
:1051D000D9F80C10C9E902100098C9F810A00138DC
:1051E0000828A3D8DFE800F00606482C6E0606481B
:1051F0002C0000BF9BF82810019ADBF8180041F042
:1052000001038BF8283083185F4647F8043F534565
:10521000CBF810B008D9924509F10806BFF482AF67
:10522000934206D27EE700BFAAEB02028242FFF45D
:1052300077AF4A0728D401F0FA008BF828004FE036
:105240009BF8280040F0010101988BF828100028F5
:10525000CBF818004AD05044594609F10C0241F8E5
:10526000040FCBF810B0504588BF09F10802106850
:1052700000F0EAF95AE700BF9BF8280000F0FE00B2
:105280008BF8280052E700BF019901440BE000BFF2
:10529000AAEB010181421DD3DBF820105846884754
:1052A000DBF8180021460C185445CBF80440CBF825
:1052B00010B0EDD98A4509F108000DD28C42EBD22D
:1052C0000AE000BF9BF828008107D7D4584600F0B9
:1052D00015FA2BE709F10C000068394600F0B4F923
:1052E000DBF820105846884720E700BF00F05AF945
:1052F000FEE70000F0B581B0044600F0D7F994F95C
:105300004560012E0FDB04F1240500BF286850B171
:10531000284601F093F8002818BF00F0BFFBF0B258
:10532000013E0128F2D8FF2684F8456000F0CEF94E
:1053300000F0BCF994F94470012F0EDB04F1100564
:10534000286850B1284601F079F8002818BF00F00D
:10535000A5FBF8B2013F0128F2D884F8446001B0FF
:10536000BDE8F04000F0B2B970B5044600F0A2FC10
:1053700040F2341CC2F2000CDCF8003023B104F11E
:105380000802092A29D27FE040F2B070C2F2000080
:1053900010F0070100F1070121F00701A0EB010265
:1053A00002F5005204BF01464FF4005200200A44A7
:1053B00022F00702A2F10803CCE90510CCF8003076
:1053C00042E90200581ADCF80030C1E90030CCE9AB
:1053D000010004F10802092A56D314F0070006D090
:1053E0000938824250D824F0070000F11002012A47
:1053F0004FF0000449DBDCF80400824245D86046E7
:1054000050F814EFDEF8044094422CD2DEF800107D
:10541000C1B175464C68944218D20E68B6B1746832
:10542000944217D23068A8B14468944216D20568F5
:10543000A5B16C68944215D22968AE460029E9D11D
:1054400011E000BF0CF114000DE000BF8E462846AD
:1054500009E000BFB646084605E000BF8646304674
:1054600001E000BFAE469E450ED00368DEF8005056
:10547000A11A1129056045D30EEB020460070FD075
:1054800000F090F8FEE700BF002401F03FF860074D
:1054900004BF204670BD00F085F800BFFEE700BFE6
:1054A0000CF114006160CEF804200168A1420BD217
:1054B0000868A0420CD20168A14205D208680A46D9
:1054C000A042F2D305E000BF0246084601E000BF5B
:1054D0000A46556861685619A64202D12944144605
:1054E00051606518854201D0054607E0DCF80050A0
:1054F000A84203D0D0E9005008446060A242256071
:1055000018BF1460DCE90112DEF8040003F108049E
:10551000091A9142CCF8041038BFCCF8081040F0BA
:1055200000400021CEE90010DCF80C000130CCF87E
:105530000C00AAE770B540F8481D4FF08071416437
:105540004FF002314FF00134C0E90B4144F6A9712C
:105550004FF0123C4FF0033E4FF01135C0F6000102
:1055600002644FF004326FF04306C0E90953C0F8FB
:1055700034E0C0E90EC14FF0103C4FF0093E4FF04F
:1055800008334FF00531C0E9016200F10C024FF021
:1055900007354FF0063432C2C0E9063EC0F820C0DD
:1055A00070BD0000EFF311804FF0500181F31188BE
:1055B000BFF34F8FBFF36F8F70470000D0E9013208
:1055C0000169D1F804C09A608445536008BF4A60FD
:1055D000002202610868013808600868704700000E
:1055E00042F6B413C2F20003036042F2B470C2F296
:1055F00000000860802010607047000042F61043F1
:10560000C2F20003036042F61020C2F200000860FC
:10561000802010607047000080F31188BFF34F8F27
:10562000BFF36F8F704700004FF0FF31024642F822
:10563000081F00214260C0E903220160704700009A
:10564000002101617047000010B5D1F800C01CF1C5
:10565000010213D000F1080462681368634511D891
:1056600053681C68644511D85A68146864450FD89B
:1056700054682368A6466345EED90BE00269D2F868
:1056800004E007E09646224604E000BF9E4601E0A3
:1056900096461A46C1F804E0CEF808108A605160B8
:1056A000086101680131016010BD000080B5FFF79D
:1056B00079FF40F20C00C2F2000001680131016084
:1056C000BFF34F8FBFF36F8F80BD000040F20C001F
:1056D000C2F20000016849B1016801390160006847
:1056E00000280CBF00207047FFF796BF80B5FFF77A
:1056F00059FFBDE8804000BFFEE70000B0B50028BC
:1057000008BFB0BD50F8041C002903D4FFF74AFFBE
:10571000FEE700BFA0F1080422681AB1FFF742FFBC
:10572000FEE700BF21F0004140F8041C054600F0F0
:10573000C1FA40F2341CC2F2000C55F8041CDCF82B
:1057400004000CF114020844CCF804001068A042D4
:105750000AD20268A24213D21068A04204D20268A0
:105760000346A242F2D301E01346024658681D18D0
:10577000A5420AD0601890420DD0104613E000BF39
:10578000034658681D18A542F4D101441C465960CF
:1057900060189042F1D1DCF80000824203D0D2E9D7
:1057A000000211446160A342206018BF1C60DCF855
:1057B00010000130CCF81000BDE8B04000F0A6BEEB
:1057C000806910F8020C662808BF00F0F1B880B5B7
:1057D000FFF7E8FEBDE88040FEE700004EF2100053
:1057E000CEF2000000210160816040F20801C2F2A7
:1057F0000001096844F6D352C1F26202A1FB021211
:105800004FF0FF3101EB92114160072101607047B9
:105810004EF60450CEF200004FF080510160BFF30D
:105820004F8FBFF36F8F704770B5002862D000298B
:1058300008BF70BD42F66C42C2F200025368984243
:105840005CD0D36898425DD05369984260D0D369E8
:10585000984263D0536A984266D0D36A984269D01E
:10586000536B98426CD0D36B98426FD0134653F869
:1058700008EF166814464FF0000CBEF1000F18BF79
:10588000634654F8105F002E08BF13461646002DDD
:1058900018BF644656F8185F002B18BF1C46002D31
:1058A00018BF6646154655F8203F002C18BF2646FF
:1058B0001446002B18BF654654F8283F002E18BF29
:1058C0003546002B18BF6446134653F8306F002D41
:1058D00018BF2C46002E18BF6346002C18BF234665
:1058E000B3BB52F8383F002B134608BFC3E9001082
:1058F00070BD00BFFFF756FEFEE700BF1346C3E9C9
:10590000001070BD02F10803C3E9001070BD00BFB4
:1059100002F11003C3E9001070BD00BF02F11803CB
:10592000C3E9001070BD00BF02F12003C3E90010FD
:1059300070BD00BF02F12803C3E9001070BD00BFB5
:1059400002F13003C3E9001070BD00BF02F138035B
:10595000C3E9001070BD000070B515460E46044640
:10596000FFF7A4FE94F84400FF2804BF002084F849
:10597000440094F84500FF2804BF002084F8450047
:10598000FFF7A4FEA06B28B12046BDE87040FFF7EA
:10599000B1BC00BF04F1240031462A4600F0D0F823
:1059A0002046BDE87040FFF7A5BC000000000000E5
:1059B0000B4A1168086806C881F30B88022181F33D
:1059C0001488203080F30988BFF36F8F4FF00000F8
:1059D00080F31188104700BF00BF00BF00BF00BFA9
:1059E0004C03002000000000000000000000000048
:1059F00007480068006880F3088862B661B6BFF3A4
:105A00004F8FBFF36F8F66DF00BF00BF00BF00BFC7
:105A100008ED00E0F0B581B088B340F27C04C2F23A
:105A20000004216921B1FFF7BDFD00BFFEE700BF03
:105A3000216940F24C3601312161C2F200066569EC
:105A40003168074604310846FFF7B8FD3068ED19A4
:105A5000456005D3E06931680431FFF7F5FD08E0E2
:105A6000A06931680431FFF7EFFDE06A854238BF75
:105A7000E56200F04BFD00281CBF01B0F0BD01B095
:105A8000BDE8F040FFF7C4BE40F27C01C2F2000165
:105A90004A6B0260496941607047000040F27C0037
:105AA000C2F200000121416270470000F0B581B0F0
:105AB00000B340F24C36C2F200060C463168183191
:105AC000FFF7C2FD40F27C05C2F200056F69306845
:105AD0000430FFF773FD601C10D03068E419446097
